S10900003028000A000A8A
S1130010BD150311BE15EA301B286A301B286A3C43
S1230020C1361628C13A060BEA151B28C1321B28C13E020BEA150F3028280F3CD90B8115A4
S1230040403ACA19050B4A1203302828CA1DC03A58302B28583C3E118315BD113D110D00F0
S1230060C122CB22A622030B9615800BFD229F22B122FF0BCC15C03BC80BC415413C010BD2
S1230080C715C038FF0BB915BA1540324A28403E5721ED20C0324F28C03E7F2073200E0053
S12300A045280C00800BE8151E0BE91500000000000000000000020BEA150C00000B4C178E
S12300C003356328CC1B000B47170331692840306B28FF0BCC15000B4C1703317228EB3FF0
S12300E00B00EB3B0C0040307D28C919FF0B491203307E28C91D7B227E28C91D0C00A21DB0
S1230100C134A219221601080331D428C13C41348C28E920E520D428471603080331A8281E
S1230120E5204416A215A11D22169415000B95156C0B9615000B0B23B6151616B5153616E9
S1230140C615A215A11D4616DF15D03A503AD428471602080331B628E9203616C615A2150B
S1230160A11D4616DE15D0395039D428471601080331D4284416A215A11D22169415000B8F
S12301809515840B9615000B0B23B6151616B5153616C615A215A11D4616DF15D03A503AFD
S12301A04616DE15D03950394033E428C138C033DF28C80B44120334E428C419E4283B0B4D
S12301C044120330E428C41B0C00DE1DD03D503D0C00DF1DD03E503E0C0040300C2941353B
S12301E00C29C8194816640803314E2941304E294139413940374E29403BC138A21DC0377C
S1230200A2192216000B0335010BA21522130330C03F0334C03B4E2940344E29403F020B5A
S1230220481203302429640B481203342429413B000B4B1703352329320B4B120334232909
S1230240413F413CC138CB1DC81D413DA21D4137A2192216010803314C29CB190A0B4B1227
S123026003303929413439294138CB1D413FC1384F21320B4B1203304C29413FCB1D4134A5
S1230280432941384A29C719040B471203304A29010BC715C1384F21413DC81D0C00650BE4
S12302A0441203305529C03B5629C03F0C00563867388B22A21DEC36A219221601080331C3
S12302C063290E005A296E16A615A215A11D6F16AD15A215A11D000B2617AE156B3FEE1DCD
S12302E0EF1D563C673C063C1E0B2D1FB515B61DB6142E16B61F3C163612033181293B16B9
S1230300351203348529FF0BCC15033C3714B5153814B615033CB514B6143716B512381623
S123032003303818B6122D16B51F2E1603342E18B61F033C3613B8153513B715033CB8134E
S1230340B7133716AD153816AE15C0302C2A280B2D1FAF15B01DB0142E16B01F3C163012EE
S12303600331B4293B162F120334C929FF0BCC15C319090B431203307A2A4038C03CD80B4F
S12303803B1FB315FF0BB4153C1603343C18B41F7A2AC31D000B4C1703350F2AC031D22965
S12303A0C03DE829C0392D16A2152E16A115A51DA61D2216A71F211603342118A81F251612
S12303C003342518A91F261603342618AA1FC219100B42120330182AC21D27110F0DA215BA
S12303E02811A115F00DA217A1102911A515F00DA117A5102A11A615F00DA517A6102216A8
S1230400BB152116BC15A71DA81DA91DAA1D4031182A403D2D16BB152E16BC15182A2D160D
S1230420BB152E16BC15A71DA81DA91DAA1DC21DA21D4035A2192216010803317A2A2E1692
S12304403C120331252A2D163B1203347A2A2D16BB152E16BC157A2AC219020B4212033021
S12304604E2AC21D2E163C120331382A2D163B1203303F2A2D16BB152E16BC15422ABB1965
S12304800335BC193A162E120331482A39162D1203344E2A2D16B9152E16BA15280B331F2F
S12304A0A215A11DA1143416A11F3916221FB5152116B6153A1603343A18B61F033CB613F2
S12304C0B5132E1634120331672A2D1633120330712A2E16361203316F2A2D163512033491
S12304E0792AC319040B431203307A2AC31D7B227A2AC31D0C00403CC0382D16BB152E1666
S1230500BC15C21DA71DA81DA91DAA1D4039FF0BB915BA150C00EC1DEE1DEF1D603B4A0BD5
S1230520E015130BE315FF0BE415FC0BEC1EF40BEB15EB3AEB3DE03B6B3BEB3B0C00D83D44
S1230540000BEB15FF0BED150C000C00861D330BD615330BE715FF0B8D15FF0B8B158C1D63
S12305600C00890BD915C70BDA15C70BDB15DF1DD03E503EDE1DD03D503DDD1DD03C503CA7
S12305800C004F0B84153F0BCF15841B801DCF1AC52A0C000C000F0BE7153F0BD615000BA8
S12305A08615FF0B8B15FF0B8D15000B8C15070B8915D90B811D000BD915DA1DDB1D000B75
S12305C0D815000BD015000BD115000BD215DC1DDD1DDE1DDF1D010B8E158E3B000B8F1546
S12305E0000BE5150C000C00A3152316A415A31B000B24170331F52A0C00A2151616A11534
S12306002116221703350A2B0E00FF0BA11F0330A21B002B0C0098151616971515169A159B
S1230620141699159B1D9C1D080B9D1517301E2B19169B1F1A1603341A189C1F1830302B38
S12306409E151A169F151B169E151C169C159F15000B1E1F9B151916A015033420189C1F7E
S123066017169E1518169F15033C1F1398151E13971519169E151A169F15033C1E149915D4
S12306801F149A151D1B9D159E15000B1E170331162B1B1696151C160C00020A000A010AE7
S11906A0000A4C0A000A010A000A020A000A4D0A000A010A000A35
S3050000608119
S903FFFFFE
