S10500002028B2
S1130010B2150311B3150F3018280F3CD90B8115F5
S1230020353AC419020B441203301828C41DB53A58301B28583C33118315B21132110D007C
S1230040BC22C622AA22200BD322A322B522FF0BBE15FF0BBF15FF0BC015B53B3738B53868
S1230060FF0BA815A915FF0BA615A71535323B28353EBE210321B5324228B53EA120D2203F
S12300805A2045200E0036280C00000B3E1703354A28BE1B36344E28B6325028FF0BBE1505
S12300A0000B3E1703315928EB3F0B00EB3B353AB53A0C00971DB6349719171601080331AA
S12300C07228B63C363466289D206A283F16DF15D03A503AB6366E28992072284016DE154E
S12300E0D0395039B531852837307E28B6327E28FF0B401203348528C0198528B6328528E1
S12301000D0B401203308528C01B35339828B533912836309128FF0B3F1203349828BF19A4
S12301209828363098280D0B3F1203309828BF1B0C00DE1DD03D503D0C00DF1DD03E503E5A
S12301400C003530BE283635BE28C319B63843163C080331D128B63B3537D128353BB638AB
S1230160971DB53797191716000B0335010B971517130330B53F0334B53BD1283534D12830
S1230180353F020B43120330CF283C0B43120334CF28B6383630CE28363CCF283638363DFD
S12301A0C31D0C00B631EF28B637EF28C219B63842163C08033102293639B5350229B53917
S12301C0B638971D373497191716000B0335010B971517130330373C033437380229B635AA
S12301E00229B53D020B4212033000293C0B421203340029B638B632FF28B63E0029B63A1C
S1230200B63FC21D0C00D638E738010BEC1590227822D63CE73C063C363277292D0B1C1F82
S1230220A015A11DA1141D16A11F2F16211203311B292E16201203343029FF0BBE15BD19F6
S12302400C0B3D120330AE29B639363ED30B2E1FA415FF0BA5152F1603342F18A51FAE29C1
S1230260BD1D000B3E1703355C29BB19040B3B1203304229BB1D1C16B01F1D1603341D183D
S1230280B11FBA19080B3A1203306329BA1D033C3113AF153013AE15033CAF13AE13033C74
S12302A0AF13AE13B01DB11D36336329363F1C16AE151D16AF1563291C16AE151D16AF154E
S12302C0B01DB11DBA1D9A1D36379A191A1601080331AE291D162F12033170291C162E12DA
S12302E00334AE291C16AE151D16AF15AE2927161D1203317D2926161C12033483291C1664
S1230300A6151D16A7152D0B241F9A159B1D9B1425169B1F26161A1FA0151B16A11527165B
S123032003342718A11F033CA113A0131D16251203319C291C1624120330A6291D162112AA
S12303400331A4291C1620120334AD29BD19040B3D120330AE29AF21AE29BD1D0C00BD1D82
S1230360B63D363A1C16AE151D16AF15BA1DB01DB11D363BFF0BA615A7150C00563867388D
S1230380EC1D90227822563C673C063CB530312A2D0B1C1FA015A11DA1141D16A11F2B167E
S12303A021120331D5292A1620120334EA29FF0BBE15BC190C0B3C120330682A3538B53CDE
S12303C0D30B2A1FA215FF0BA3152B1603342B18A31F682ABC1D000B3E170335162AB919E7
S12303E0040B391203301D2AB91D1C16AC1F1D1603341D18AD1FB819080B381203301D2A3F
S1230400B81D033C2D13AB152C13AA15033CAB13AA13033CAB13AA13AC1DAD1D35311D2A12
S1230420353D1C16AA151D16AB151D2A1C16AA151D16AB15AC1DAD1DB81D9A1D35359A19FB
S12304401A1601080331682A1D162B1203312A2A1C162A120334682A1C16AA151D16AB1586
S1230460682A29161D120331372A28161C1203343D2A1C16A8151D16A9152D0B221F9A15D1
S12304809B1D9B1423169B1F28161A1FA0151B16A115291603342918A11F033CA113A013CE
S12304A01D1623120331562A1C1622120330602A1D16211203315E2A1C1620120334672AAB
S12304C0BC19040B3C120330682A6922682ABC1D0C00BC1D353CB5381C16AA151D16AB1504
S12304E0B81DAC1DAD1D3539FF0BA815A9150C00971DEC369719171601080331812A0E00E8
S1230500782A6E1699159715981D6F169C159715981D000B19179D156B3FEE1DEF1D0C0051
S1230520030BEC1EEE1DEF1D603B4A0BE0150E0BE315FF0BE415F40BEB15EB3AEB3DE03B28
S12305406B3BEB3B0C00D83D000BEB15FF0BED150C000C00861D330BD615330BE715FF0B6B
S12305608D15FF0B8B158C1D0C00890BD915FE0BDA15FE0BDB150C004F0B84153F0BCF15D6
S1230580841B801DCF1AC02A0C000C00070B8915D90B811D010B8E158E3B000B8F15000BCC
S12305A0E5150C000C009715000B17170335DF2A0E000000000000000000971BD42A0C0035
S3050000608119
S903FFFFFE
